:020000040000FA
:100000000212FF022003FFFFFFFFFF02200BFFFF92
:10001000FFFFFF020E61FFFFFFFFFF02201BFFFF3C
:10002000FFFFFF022023FFFFFFFFFF02202BFFFF48
:10003000FFFFFF022033FFFFFFFFFF020EA4FFFFC1
:10004000FFFFFF022043FFFFFFFFFF02204BFFFFE8
:10005000FFFFFF022053FFFFFFFFFF02205BFFFFB8
:10006000FFFFFF022063FFFFFFFFFF02206BFFFF88
:10007000FFFFFF022073FFFFFFFFFF02207BFFFF58
:10008000FFFFFF022083FFFFFFFFFF02208BFFFF28
:10009000FFFF70DFFFFF040000000002000000C847
:1000A0000300030369A5020269A501000000000026
:1000B00004003273000074F8121046900393E0605D
:1000C0001590030274FEF0900304744DF0A37405C0
:1000D000F07A011206857F0102116374F71210464F
:1000E00074FF12126B7E00801F851882851983E0D1
:1000F00064FE70069003877401F085188285198369
:10010000E0F8900384E068F07C017D00AA18AB1948
:10011000120E1C8B09EA450970030201F38518824F
:10012000851983E064EF70027E07E0C0E0900387EA
:10013000E0FA900385E0F8EA28F8E43400F9740264
:1001400028F582740339F583D0E0F0900387E060EE
:100150009814600E14602C14603C14605214606893
:100160008098900384E4F0851882851983E09003D9
:1001700086F0C394809003874004E40200F974027F
:100180000200F9851882851983E0900382F09003BC
:100190008774030200F9851882851983E090038330
:1001A000F0900386E0601990038774040200F990D0
:1001B0000385E004F0F8900386E06860030200FA2B
:1001C00090038774050200F9900385E4F09003879B
:1001D000F0900384E0F8851882851983E068600355
:1001E0000200FA900382E0644D60030200FA1203F9
:1001F000288002EEF974011212377F020211637433
:10020000F712104674FB12126BEAFEEBFF7508043E
:1002100075090078081212CF74021212E87A907BE6
:10022000007904120EC574021212371206771213E7
:1002300039E0687003A3E06970128518828519831C
:10024000E0F47003A3E0F4600302030874041212E4
:10025000E01206DD8A088B09A808A90974021213A6
:1002600039E8F0A3E9F07404121339E06008790169
:100270001200B6020321851882851983E068700395
:10028000A3E0697076851882851983E0F47003A372
:10029000E0F4701974021213397410F0A37420F092
:1002A0008518828519837410F0A37420F0750801F5
:1002B00075090078081212CF74021212E87A247BB2
:1002C00008120F49740212123775080478081212C6
:1002D000CF74021212E87A907B007904120EC57472
:1002E00002121237120677121339E0687003A3E086
:1002F000697004790280067904800279031200B6DD
:100300008E828F83741E80058E828F83E4F01206A6
:1003100077121339E0687003A3E0697004790180F3
:1003200002790074050201F774ED12104674F81298
:10033000126B900307E0FD900306E0FCFAEDF8E491
:10034000C8F9EA28FEE93408FF751001750B00753D
:100350000A068E088F0974027808121296C395084F
:10036000F8E49509F9740228F50E740339F50F8E37
:10037000088F09740978081212F0E508F511EE24C7
:1003800010F508E43FF509EEF50CEF5401F50D907A
:100390000383E014605914700302046414700302B0
:1003A00004DF14601024FE700302059A1470030227
:1003B000064A02065A750A03794E120C5B9003072F
:1003C00012066D7402F0A3744012066B74081206D4
:1003D0006BF0A3F07418C3940704F510AA10A90BCE
:1003E000120685A90A74081212377F0C0211637570
:1003F0000A04794E120C5BEE450D7005A911120F1F
:10040000AFC3EE9425EF9408503CC3E5089424E56F
:100410000994084031E50E2496F8E50F3420F98858
:10042000828983E0701BA3AA82AB83E070139003E0
:10043000887401F08882898374A5F08A828B838016
:1004400004900388E4F0750810750900780812120A
:10045000CF7C087D03EEFAEFFB120F4974021212F3
:10046000370203DC750A05E511C394794006750B64
:10047000010203DC75124075130078121212CF7C52
:10048000097D037402780C121296AA0CAB0DA91107
:10049000120EC57402121237900307E0A3F0900306
:1004A00006E0A3F0751043C3EE9425EF94084003D3
:1004B0000203DCC3E5089424E50994085003020311
:1004C000DC900388E070030203DCE50E2497F8E576
:1004D0000F3420F988828983E4F0A3F00203DC75ED
:1004E000080475090078081212CF74021212E87A13
:1004F000907B007904120EC5740212123774021236
:100500001339E0F8A3E0F9851882851983E0687053
:1005100003A3E069851882851983700BE0F47003EA
:10052000A3E0F470578009E0F47003A3E0F4700DC9
:100530008518828519837410F0A37420F012067751
:10054000121339E8F0A3E9F075080178081212CF08
:1005500074021212E87A247B08120F4974021212F4
:100560003775080478081212CF74021212E87A90D4
:100570007B007904120EC57402121237120677122C
:100580001339E0687003A3E0697006750A0102037D
:10059000DC750A02750B070203DC900391E060072B
:1005A000640260030203DCEDFF7A01790012068524
:1005B000E0600302063E8003120D1C120D26E97056
:1005C000F7740412133912065F7404121339780891
:1005D00012131D85080C85090D850A0E850B0F90D9
:1005E00005A2780C1212BC7404121339780C121381
:1005F0000EE5084509450A450B70CE8EC2E5C55487
:10060000E04FF5C5740412133912065F7404121317
:1006100039780812131D85080C85090D850A0E8589
:100620000B0F9005A2780C1212BC740412133978C7
:100630000C12130EE5084509450A450B70CE7A01E8
:10064000790012068579080203E5EC900393F070B7
:10065000030203DC750A090203DC79060203E5E400
:10066000F0A37426F0A3E4F0A3F022F0A3E4F0A337
:10067000F0A3F0A3F0A322851882851983E0F8A3E4
:10068000E0F974022274F8121046EAFE900305E0C5
:10069000D2E7F0E9A3F0EE900303F08E0874042A89
:1006A000FE7C028004E062080CECFA3395E0FB74F7
:1006B000022AF58274033BF583EEF8C3EA98EB94C3
:1006C00000A2D265D03340DDE508F074012A0C3376
:1006D00095E0FD7A027B03120E4C0200D674E912FB
:1006E00010467582007583FE1211FE8A168B1775EF
:1006F00014007515008A828B83E4F0900391E070FA
:1007000006D2AAD2AF80046402700579001200B646
:10071000750C00750D20750E00750F00900391E0AB
:10072000600464027015120D1C1200DBE9F87409F4
:1007300068600302080D79001200B675080075099B
:100740000278081212CF74021212E8850C08850D87
:1007500009AA08E5095407FB850E0A850F0B740BDF
:100760007808121252A908120EC574021212377EAE
:10077000007F009005AAC0828E10EFF5113395E03E
:10078000F512F513850C08850D09850E0A850F0BEA
:10079000780879101212A99005A678081212BC7573
:1007A0008305D08278081211DF501D8518828519C3
:1007B00083E5822EF582E5833FF583E0F9AA14AB49
:1007C0001512083C8A148B150EEE70010FC3EF94BE
:1007D0000240A09005AE780C1212BC9005B2780CC5
:1007E0001211DF400302071C7900AA14AB1512088E
:1007F0003C790012083C8B15900391E07004C2AF65
:10080000C2AAEA451570277AA57BA58021E8700366
:1008100002073B740668700302073B7407687003A5
:1008200002073B8516828517837401F080BA7582B2
:10083000007583021211FE7F10021163C008C00907
:100840007C088A088B09740F78081212F0E508F802
:10085000EA25E0FAEB33FBE9A2E7500474014AFA17
:10086000E8A2E0500874216AFA74106BFBE9C33304
:10087000F91CEC70CDD009D0082274F8121046781B
:10088000007900802274942EF582E43403F583E02D
:100890008A828B83F09004141209FA4005900414A4
:1008A000E4F008E8700109900414E0FEA3E06E6033
:1008B00007C3E89CE99D40CDE8FAE9FB7F010211FE
:1008C0006374F7121046900498E0F509A3E0F50868
:1008D000F8E509C398F895E0F9E508C39509E850EB
:1008E0000B120ADC701178007900801B247F500104
:1008F00009C39CE99D50EF7A007B008041E004F041
:10090000D2E908E8700109C3E89CE99D502C8A826D
:100910008B83E0C0E0900499E0FE74182EF582E429
:100920003404F583D0E0120ACC90049AE4F09004E9
:1009300099E0C3947F40C6E480C5E8FAE9FB7F02F2
:10094000021163C082C083C2E9900498E0F8A3E07A
:10095000686017741828F582E43404F583E0F5C163
:10096000900498120AF34002E4F0020D3A74F8126F
:1009700010467800790090051DE07055A3E0705195
:1009800075F900C28FC284A28340FCA28F4004A2EA
:100990008350F8AEF9C28FA2835004D2848032EE25
:1009A000C0E0E0FE1209EFD0E0F090051E120AF35D
:1009B00040D9E4F080D51209EFE08A828B83F09071
:1009C000051D1209FA400590051DE4F008E87001C4
:1009D0000990051DE0FEA3E06E6007C3E89CE99D59
:1009E00040D4E8497006E4F090051DF00208B874A0
:1009F0009D2EF582E43404F58322E004120AD0C36C
:100A000094802274F81210469005A0E0FEF890053C
:100A10009FE0FFEEC39FE0500DC398F895E0F912F8
:100A20000ADB70188012C398F895E0F9E8247F502B
:100A30000109C39CE99D4004EC4D70077A007B00DE
:100A4000020AC98A828B83E0F5F9A3AA82AB837874
:100A50000179008008E004F008E8700109C3E89C0F
:100A6000E99D50278A828B83E0C0E09005A0E0FEDC
:100A7000741F2EF582E43405F583D0E0120ACC9081
:100A800005A0E0C3947F40CDE480CCC28FA2834018
:100A9000FCC284A28F4004A28350F890059F120AE2
:100AA000E6E0F5F9C28F90059FE0FAA3E06A9005B1
:100AB0009F7005120AE68005120AF34002E4F0A2D4
:100AC0008350D0D284E8FAE9FB0208BC120AD02293
:100AD000F08A828B83A3AA82AB8322E824FF18E9E1
:100AE00034FFF9E84922E0FA741F2AF582E434055C
:100AF000F58322E004F0C394802274FB12126B7E13
:100B0000009005CA780812131D9005CA7401F0A35D
:100B1000F0A37469F0A374A5F09005B678081212DA
:100B20008170047E0180159005BA780812128160E8
:100B300008E59D541864107003022000120C81EE29
:100B4000A2E05003020BFEAA18AB191201FFE970D4
:100B500003020BFE851882851983E0C3943C500C78
:100B6000E0F8743CC398FA95E0FB80047A007B00BF
:100B7000120D3FE97003020BFE900391E0640170D7
:100B80000C75F800C2AB539AF7D2EA805E7907126F
:100B900000B68003120D1C120D26E970F7740112C5
:100BA0001339E4F0A37426F0A3E4F0A3F074011267
:100BB0001339780812131D85080C85090D850A0E56
:100BC000850B0F9005A2780C1212BC740112133918
:100BD000780C12130EE5084509450A450B70CE75D1
:100BE0008600C2AAC28B539AFBC2E990000174CD61
:100BF000F0022000C2AF75C9AB75C95B80FE7508F5
:100C000000750900750A00750B00900391E0701BD8
:100C1000D2AAD2AF79051200B6E07003120D1C12F1
:100C200000DBE9F8740968700980E9794E120C5B01
:100C300080ED74016870E2E07017120D1C9005BE23
:100C400078081212BC9005C278081211DF50EBC26E
:100C5000AAC2AF75C9AB75C95B80FEC082C083787C
:100C6000109005A1E0C399501575B60FE5B4A2E741
:100C700050FAE5BBC39940F118E870EDE9F0020DB8
:100C80003AC082C08353BEFBE59DA2E650FA0078CD
:100C9000F8790100120ADB70FA75C6807480659ECF
:100CA00070FA43BE049062707408F0794A120C5BCB
:100CB00090000174F5F07403F5D575D489A2A0E411
:100CC00033900391F0A2E05029D28453F3F753F309
:100CD000EF53FDF743FD10538FF753F7DF43FC202D
:100CE00043F10253F5DF75F82043F4F0D2FED2ABA6
:100CF000802853FF3F85FFFF53F1FE43F30C53F26F
:100D0000F375868075C48090049BE4F0A3F075C2EF
:100D1000D875C50B75C402438640801E8003120936
:100D200043A2E940F922C082C083900498E0F8A36E
:100D3000E0686004790180027900D083D082227457
:100D4000F112104674FF12126B7E00900391E06462
:100D500001706CC2849003927401F07508388E099A
:100D60008E0A8E0B7C017D00AA18AB19120E1C8B0B
:100D70000DEA450D6018851882851983E0641060BE
:100D80002DE064EF70088E088E098E0A8E0B8508A0
:100D90000C85090D850A0E850B0F9005A2780812A7
:100DA00012BCE50C450D450E450F70347E019003D5
:100DB00091E064017056D284900392E4F08051D2A5
:100DC000AAD2AF8A088B09E4F50AF50B9005C6781C
:100DD0000C12131D7808790C120FC679061200B692
:100DE000900391E06003020D64120D1C1200DBE918
:100DF000F8740968700779061200B6809174076864
:100E00006084E8608974066870A48082C2AFC2AA58
:100E1000EEF974011212377F08021163C082C08399
:100E2000900391E0700512087A801E900392E060B2
:100E300015A28F500BE5F98A828B83F07A0180022C
:100E40007A007B00800312096D020D3AC082C083D4
:100E5000900391E070051208C18003120A03020D8D
:100E60003AC0E074F21210AC900001E064CD70055D
:100E7000122013802AE064F57024E5C1C28BC0E023
:100E8000900415E0F8749428F582E43403F583D0D7
:100E9000E0F0900415120AF34005E4F08001007FB1
:100EA0000102110BC0E074F21210AC900001E0647A
:100EB000CD700512203B800BE064F57005120943EC
:100EC00080010080DA74F6121046890A740F550A00
:100ED000F508750900740B7808121296EA2400F8D8
:100EE000EB3480F9E82400E93509F985C709A2AF98
:100EF000E433F508C2AFE50AC4540FFAE5C754F865
:100F00004AF5C7740A121339E0FAA3E0FB801C8883
:100F1000828983E08C828D83F088828983A3A88272
:100F2000A9838C828D83A3AC82AD83EAFEEBFFEEB6
:100F300024FF1AEF34FFFBEE4F70D48509C7E50894
:100F4000A2E092AF7F0302116374F7121046ED9096
:100F50000389F0ECA3F0A37462F0A37473F0A3E030
:100F6000541FF07409121339E0F508A3E0F509E500
:100F700008333354FC90038EF0740678081212F094
:100F8000E50890038DF090038F7412F0A37442F083
:100F900075D1FE75D601EA906271F0EBA3F0906214
:100FA00070E0D2E1F0E0A2E740FB7F02021163C0F3
:100FB00082C083E9C333906272F0906270E0D2E045
:100FC000F0D083D08222080808EAC0E0EBC0E086B7
:100FD000F0E7A4FA180986F0E7A42AFA180986F0BF
:100FE000E7A42AFA180986F0E7A42AFA1986F0E796
:100FF000A4FBE5F02AFA190886F0E7A42BFBE5F03C
:101000003AFA190886F0E7A42BFBE5F03AFA18182B
:101010000986F0E7A4C5F02BFBE43AFA1908E7C506
:10102000F0C6A426F6E5F03BFBE43AFA1886F0E7B2
:10103000A4F6E5F00826F6E43B08F6E43A08F6D014
:10104000E0FBD0E0FA222518C582C0E0E51934FFA4
:10105000C583C0E0E518C3958224F910AF088583E5
:10106000198582188008858319858218D2AFCEF041
:10107000A3E520F0A37808E608F0A3DEFAEFF0A3DA
:10108000E58124FBF8E608F0A3E608F0A30808E6EB
:1010900008F0A3E608F0A315811581D0E0FED0E0AA
:1010A000F815811581E8C0E0EEC0E022C0D0251817
:1010B000C582C0E0E51934FFC583C0E0E518C395DB
:1010C0008224F310AF0885831985821880088583F0
:1010D00019858218D2AFC8F0A3E9F0A3EAF0A3EB18
:1010E000F0A37908E709F0A3D8FAECF0A3EDF0A398
:1010F000EEF0A3EFF0A3D0E0F0A3D0E0F0A3D0E0B7
:10110000F0A3E520F0A3E5F0F0A32285198385186C
:1011100082E0C0E0A3E0F9A3E0FAA3E0FBA3780833
:10112000E0F608A3DFFAE0FCA3E0FDA3E0FEA3E005
:10113000FFA3E0C0E0A3E0C0E0A3E0F5D0A3E0F5AA
:1011400020A3E0A3F5F010AF0885831985821880ED
:1011500008858319858218D2AFD082D083D0E0F879
:10116000D0E032851983851882E0A3FEE0A3F52044
:101170007808E0A3F608DFFAE0A3FFE0A3C0E0E010
:10118000A3C0E0E0A3C0E0E0A3C0E010AF08858208
:10119000188583198008858218858319D2AFD0837A
:1011A000D08222E490030278A179038002F0A3D8D0
:1011B000FCD9FA7AA27B0590008E782979018015F6
:1011C000E493A3AD82AE838A828B83F0A3AA82AB21
:1011D000838D828E83D8E9D9E7120AFA121343C0AD
:1011E00008C3E096F50808A3E096420808A3E09635
:1011F000420808A3E09645087001D3D00822C582B2
:101200002518C582C583351910AF07F519858218D1
:101210008007F519858218D2AFC583222518F5827B
:1012200010AF08F518400C15198008F51840021584
:1012300019D2AF8519832200C0D0251810AF08F548
:1012400018500C05198008F51850020519D2AFD0B6
:10125000D0226016080808C6C313C618C613C618DD
:10126000C613C618C613C6D5E0EA22251810AF0863
:10127000F518400C15198008F51840021519D2AF61
:1012800022E066701008A3E066700A08A3E06670AA
:101290000408A3E06622700422600D18C6C333C69A
:1012A00008C633C6D5E0F41822E627F60809E63763
:1012B000F60809E637F60809E637F622E026F608CA
:1012C000A3E036F608A3E036F608A3E036F622746B
:1012D000028000C0E0F40412121CD0E012132C2291
:1012E0002518FAE43519FB222518FCE43519FD22EE
:1012F000600C08C6C313C618C613C6D5E0F4227521
:10130000D00075813F7518027519030211A3E6F02C
:1013100008A3E6F008A3E6F008A3E6F022E0F6084A
:10132000A3E0F608A3E0F608A3E0F622CAC0E0E6D0
:10133000F0A308DAFAD0E0FA222518F582E435198C
:10134000F5832200000080FBFFFFFFFFFFFFFFFF90
:10135000FFFFFFFFFFFFFFFFFFFFFFFFFFFFFFFF9D
:10136000FFFFFFFFFFFFFFFFFFFFFFFFFFFFFFFF8D
:10137000FFFFFFFFFFFFFFFFFFFFFFFFFFFFFFFF7D
:10138000FFFFFFFFFFFFFFFFFFFFFFFFFFFFFFFF6D
:0A1FF600CA05094338860000000008
:020000040003F7
:01FFF000F020
:020000040000FA
:10200000022BFD0221F9FFFFFFFFFFFFFFFFFFFF94
:10201000FFFFFFFFFFFFFFFFFFFFFFFFFFFFFFFFD0
:10202000FFFFFFFFFFFFFFFFFFFFFF0229EDFFFFA5
:10203000FFFFFF0228B6FFFFFFFFFFFFFFFFFFFFCD
:10204000FFFFFF022741FFFFFFFFFFFFFFFFFFFF33
:10205000FFFFFF022139FFFFFFFFFFFFFFFFFFFF31
:10206000FFFFFFFFFFFFFFFFFFFFFFFFFFFFFFFF80
:10207000FFFFFFFFFFFFFFFFFFFFFFFFFFFFFFFF70
:10208000FFFFFF02218DFFFFFFFFFFFFFFFFFFFFAD
:102090001020102001965118000200001C30000092
:1020A0000000B62F9A30EC2F64300000E02F0000C3
:1020B0000000000000000000000000000000000020
:1020C00000000000000006FFFFFF01010400031AEA
:1020D000000000E8030000FFFF7E1A03E803000091
:1020E00064006400B801A0BB0D00A0BB0D0002029B
:1020F000000800000502070401051E020514020184
:102100003C0A0A01080803B80B02803E0102FEFFE8
:10211000E8030A050001FFFF0A1401E001010503BD
:102120000101FF0F10FEFF2D4C000000009F4A0030
:10213000000000FF000000FF00C0E074F212250C58
:10214000A2AFE433F508D2AFAFA7AEA1EE5F541053
:102150006006122D4C75A1EFEE5F54086008122D39
:102160005275A1F78023EEA2E092F0EFA2E082F098
:102170005017906198E0F8900725E0C398A2D265C7
:10218000D0335002E8F075A1FEE5088063C0E0742A
:10219000F212250CA2AFE433FED2AF9061A4E0F8B6
:1021A000759B00E59158540860087591F7122D9AB7
:1021B0008023E59158541060087591EF122DA0808E
:1021C00014E591A2E092F0E8A2E082F05007E0C2AC
:1021D000E0F0122EEA9061A3E0F8E5E958540460BB
:1021E0000E122EC075E9FB906193E0A2E640F2EE7C
:1021F000A2E092AF7F0102256BC0E074F212250CC1
:10220000A2AFE433FED2AF9061A5E0F8E5BF585429
:1022100004600675BFFB122F0280D4C3E498F8E473
:1022200099F912225C8026C3E49AFAE49BFBE92028
:10223000E7E912225CE498F8E499F922C3E498F8FB
:10224000E499F912225CE498F8E499F9C3E49AFA63
:10225000E49BFB22EB20E7CFE920E7E0B90010BBCD
:102260000008E88AF084F8AAF022E4FBC8FA22EB1E
:1022700070227B10C833C8C933C9335007C39AC30F
:10228000DBF280069A50012ADBEAC833F4C8C9336E
:10229000F4C9FA2275F008E4C833C8C933C933C990
:1022A0009AC99B5004C92AC93BD5F0ECFBC833F44A
:1022B000C8E4C9FA2274F51224A674FA122A8075A9
:1022C000080475090078081229A47404122A4A7AAD
:1022D000F87B0779031239D074021229D29080BB9F
:1022E0007808122C0D7402122C8E7808122AAB700A
:1022F0004875080275090078081229A47402122A88
:102300004A7AF67B0779031239D074021229D285F2
:102310001882851983E0F47003A3E0F4601B85182C
:1023200082851983E0F8A3E08882F5837402F0A324
:10233000F0A37469F0A374A5F0C2AF75D69F020034
:102340000074061229D27F04022784080808EAC014
:10235000E0EBC0E086F0E7A4FA180986F0E7A42ACB
:10236000FA180986F0E7A42AFA180986F0E7A42AE1
:10237000FA1986F0E7A4FBE5F02AFA190886F0E7D7
:10238000A42BFBE5F03AFA190886F0E7A42BFBE54D
:10239000F03AFA18180986F0E7A4C5F02BFBE43AE6
:1023A000FA1908E7C5F0C6A426F6E5F03BFBE43AC7
:1023B000FA1886F0E7A4F6E5F00826F6E43B08F6FE
:1023C000E43A08F6D0E0FBD0E0FA22E4CFC0E0E443
:1023D000CEC0E0E4CDC0E0E4CCC0E075F020E6265D
:1023E000F608E633F608E633F608E633F61818186A
:1023F000EC33FCED33FDEE33FEEF33FFC3EC970916
:10240000ED9709EE9709EF97191919400FFFEC970F
:10241000FC09ED97FD09EE97FE191906D5F0BFEC02
:10242000F709EDF709EEF709EFF7191919D0E0FCF4
:10243000D0E0FDD0E0FED0E0FF222518C582C0E04C
:10244000E51934FFC583C0E0E518C3958224F81070
:10245000AF088583198582188008858319858218BD
:10246000D2AFCEF0A3E520F0A37808E608F0A3DE13
:10247000FAEFF0A3E58124FAF8E608F0A3E608F005
:10248000A3E608F0A30808E608F0A3E608F0A31501
:10249000811581D0E0FED0E0F8158115811581E825
:1024A000C0E0EEC0E0222518C582C0E0E51934FF87
:1024B000C583C0E0E518C3958224F910AF08858371
:1024C000198582188008858319858218D2AFCEF0CD
:1024D000A3E520F0A37808E608F0A3DEFAEFF0A366
:1024E000E58124FBF8E608F0A3E608F0A30808E677
:1024F00008F0A3E608F0A315811581D0E0FED0E036
:10250000F815811581E8C0E0EEC0E022C0D02518A2
:10251000C582C0E0E51934FFC583C0E0E518C39566
:102520008224F310AF08858319858218800885837B
:1025300019858218D2AFC8F0A3E9F0A3EAF0A3EBA3
:10254000F0A37908E709F0A3D8FAECF0A3EDF0A323
:10255000EEF0A3EFF0A3D0E0F0A3D0E0F0A3D0E042
:10256000F0A3E520F0A3E5F0F0A3228519838518F8
:1025700082E0C0E0A3E0F9A3E0FAA3E0FBA37808BF
:10258000E0F608A3DFFAE0FCA3E0FDA3E0FEA3E091
:10259000FFA3E0C0E0A3E0C0E0A3E0F5D0A3E0F536
:1025A00020A3E0A3F5F010AF088583198582188079
:1025B00008858319858218D2AFD082D083D0E0F805
:1025C000D0E032122C83B90003022602E49004D139
:1025D000788A791A8002F0A3D8FCD9FA7A5A7B1E3D
:1025E00090209478A679018015E493A3AD82AE8300
:1025F0008A828B83F0A3AA82AB838D828E83D8E9F3
:10260000D9E77582EE7583FD740512297E75829A6D
:10261000758348740012297E75F0108E1A8F1B8501
:10262000821F85831E851882851983E0CEA3E0CFA3
:10263000851F82851E83EBC9EAC8EDCBECCAC3E8CF
:1026400033C8E933C9EA33CAEB33CBC3EA9EF51D7D
:10265000EB9FF51CB35004AB1CAA1DEC33CCED333F
:10266000CDD5F0DAAE1AAF1B22D083D082ECC0E019
:10267000EDC0E0E493A3FCE493A3FDED4C600D12E8
:1026800027C4EC24FFFCED34FFFD80EFE493A3FCB2
:10269000E493A3FDED4C600D122861EC24FFFCEDEA
:1026A00034FFFD80EFD0E0FDD0E0FCE493A3C0E078
:1026B000E493C0E022851983851882E0A3FEE0A39D
:1026C000F5207808E0A3F608DFFAE0A3FFE0A3C056
:1026D000E0E0A3C0E0E0A3C0E0E0A3C0E0E0A3C06E
:1026E000E010AF08858218858319800885821885D7
:1026F0008319D2AFD083D082022984D083D082E9DB
:10270000C0E0E493A3C386F0C5F095F0F908E49324
:10271000A386F0C5F095F0700BE493A3C399400530
:10272000E9048002A3E475F002A42582F582E5F0B5
:102730003583F583D0E0F9E493A3C0E0E493C0E0EF
:1027400022C0E074F212250CA2AFE433FED2AFC275
:10275000C0901B29E0700BE5D1A2E4501D122CB6ED
:102760008018E5D1A2E3500675D1F71247B6E5D13E
:10277000A2E4500675D1EF1247AAEEA2E092AF7F15
:102780000102256B851983851882E0A3FEE0A3F57D
:10279000207808E0A3F608DFFAE0A3FFE0A3C0E09A
:1027A000E0A3C0E0E0A3C0E0E0A3C0E010AF088574
:1027B00082188583198008858218858319D2AFD045
:1027C00083D08222C0E0C3E49396087401939618E4
:1027D000400FE493667008087401936618700070E7
:1027E00019A3A3C3E49396087401939618A3A34076
:1027F0000DD0E0D0E0D0E00226A5A3A3A3A3A3A31D
:10280000D0E0227404800474028000CCC0E0EDC0EB
:10281000E0E518C39CCCAD1950011D10AF068C1813
:102820008D1980068C188D19D2AF122900D0E0FDC9
:10283000D0E0FC2274028000CCC0E0EDC0E0E518DE
:10284000C39CCCAD1950011D10AF068C188D19809A
:10285000068C188D19D2AF1228DED0E0FDD0E0FC36
:1028600022C0E0C0F088F0E4936670080874019319
:1028700066187000A8F0A3A3700BD0F0D0E0D0E0F1
:10288000D0E00226A5A3A3D0F0D0E022D083D0824E
:10289000CCC0E0E493A3600612295F1470FAE493BD
:1028A000A36006122A6A1470FAD0E0FCE493A3C075
:1028B000E0E493C0E022C0E074F212250C758B00B6
:1028C000C2E8901B29E0700E7A007B109007BBE0F5
:1028D000F91231C68003123A247F0102256BCAC067
:1028E000E0E493A3C582CCC582C583CDC583F0A3A4
:1028F000C582CCC582C583CDC583DAE5D0E0CA22C6
:10290000CAC0E0E0A3C582CCC582C583CDC583F033
:10291000A3C582CCC582C583CDC583DAE6D0E0CA23
:10292000227009080808226016181818C6C333C692
:1029300008C633C608C633C608C633C6D5E0EA2281
:10294000C008C3E096F50808A3E096420808A3E093
:1029500096420808A3E09645087001D3D00822C02B
:10296000E0E493A3D39C5010E493A3C39C400AD00B
:10297000E0D0E0D0E00228A9A3A3A3D0E022C09F2A
:10298000F59FE473D09F22D083D082C09FE493C090
:10299000E0740193C0E0740293F59F227404800AEE
:1029A00074038006740280027401C0E0F4041229EA
:1029B000B7D0E0122C3A222518F58210AF08F5188E
:1029C000400C15198008F51840021519D2AF851969
:1029D000832200C0D0251810AF08F518500C051937
:1029E0008008F51850020519D2AFD0D022C0E0C03F
:1029F000D0E8C0E0A8A8D2AFC2C7E8A2E792AFD0A3
:102A0000E0F8D0D0D0E032BB0102E722C082C08320
:102A100089828A83BB0003E08002E493D083D08262
:102A2000226016080808C6C313C618C613C618C6FF
:102A300013C618C613C6D5E0EA222518F8E43519DE
:102A4000F9222518FAE43519FB222518FCE435197A
:102A5000FD22C3E0C696F608A3E0C696F608A3E0FA
:102A6000C696F608A3E0C696F622C0E0E493A36CEF
:102A70007009D0E0D0E0D0E00228A9A3A3D0E022E2
:102A8000251810AF08F518400C15198008F51840E6
:102A9000021519D2AF22E76670100809E766700ABE
:102AA0000809E76670040809E76622E06670100806
:102AB000A3E066700A08A3E066700408A3E066223B
:102AC000C3E09608A3E09608A3E09608A3E096A2C8
:102AD000D265D03322C3E096F008A3E096F008A3B5
:102AE000E096F008A3E096F022C3E697F60809E620
:102AF00097F60809E697F60809E697F622C3E493E5
:102B0000960874019396087402939608740393963A
:102B100022E493F608740193F608740293F608749D
:102B20000393F622E647F60809E647F60809E64762
:102B3000F60809E647F622E026F008A3E036F0089A
:102B4000A3E036F008A3E036F022E627F60809E60F
:102B500037F60809E637F60809E637F622E657F6AB
:102B60000809E657F60809E657F60809E657F62277
:102B7000E056F608A3E056F608A3E056F608A3E0F0
:102B800056F622E026F608A3E036F608A3E036F66D
:102B900008A3E036F622E056F008A3E056F008A3BA
:102BA000E056F008A3E056F022700422600D18C62B
:102BB000C333C608C633C6D5E0F41822E4C396F67C
:102BC00008E496F608E496F608E496F622C6F4C6FB
:102BD00008C6F4C608C6F4C608C6F4C622C3E796FB
:102BE0000809E7960809E7960809E79622C3E096E0
:102BF00008A3E09608A3E09608A3E0962275D0000B
:102C000075813F7518D1751904000225C3E0F608D7
:102C1000A3E0F608A3E0F608A3E0F622600C08C6DD
:102C2000C313C618C613C6D5E0F422E6F008A3E61F
:102C3000F008A3E6F008A3E6F022CAC0E0E6F0A39D
:102C400008DAFAD0E0FA22ECF0A3EDF0A3EEF0A35C
:102C5000EFF022E0FCA3E0FDA3E0FEA3E0FF22E012
:102C6000FAA3E0FBA3E0FCA3E0FD22E0F8A3E0F977
:102C7000A3E0FAA3E0FB22E8F0A3E9F0A3EAF0A3C3
:102C8000EBF022E5C754F84401F5C7790122251875
:102C9000F582E43519F583221229870CFA031229EB
:102CA00087D4FA0312298749FB031229874CFC03B6
:102CB000122987EDFD0312298752FE031229879DF1
:102CC000FE03122987AEFE03122987BDFE031229D7
:102CD00087D3FE03122987E6FE03122987F1FE033C
:102CE00012298702FF031229872AEA05122987562B
:102CF000EA05122987D8EC051229872FED0512293C
:102D0000876FED0512298783ED051229879CED0554
:102D10001229878DEE051229873EEF051229875269
:102D2000EF051229873EA70612298762A7061229F6
:102D3000877BA706122987ADA706122987DDA7067C
:102D40001229870AA8061229876CA8061229877BF0
:102D5000A80612298785A80612298792A806122993
:102D600087E39906122987039A06122987429A0651
:102D70001229875D9A061229877C9A06122987E212
:102D80009A06122987EB9A06122987489B06122970
:102D9000876C9B061229872D9C061229873A9C0670
:102DA0001229874B9C06122987D0B006122987E882
:102DB000B00612298714B10612298742800612290B
:102DC000879C8106122987AA8106122987BD810660
:102DD000122987D28106122987E78106122987FAEC
:102DE00081061229876E8206122987D3820612294C
:102DF0008775830612298739840612298749840634
:102E000012298758840612298772AF0612298796DD
:102E1000AF06122987BEAF06122987E6AF06122930
:102E200087EE9E06122987159F06122987349F0672
:102E30001229879C9F061229870F97061229872837
:102E40009706122987349706122987489706122970
:102E5000876697061229877097061229877A970640
:102E60001229878D97061229871A980612298789B1
:102E70009806122987B898061229870699061229FA
:102E8000875599061229877099061229877A99061B
:102E90001229878B9906122987CE990612298785D0
:102EA000B0061229877AD205122987A4D2051229E1
:102EB00087C1D205122987D4D205122987EAD20503
:102EC00012298748D3051229877BD3051229876CDD
:102ED000D705122987CCD805122987FFD8051229D2
:102EE0008749D9051229879CDA05122987C4DA0592
:102EF000122987D9DA05122987E9DA051229872DDF
:102F0000DB0512298788DB0512298798DB05122942
:102F100087F7A90612298711AA0612298739AA0656
:102F200012298752AA0612298776AA06122987949F
:102F3000AA06122987ABAA06122987D9AA0612293E
:102F400087F4AA0612298717B10612298719900655
:102F50001229872990061229872E91061229876047
:102F60009106122987869106122987A991061229AE
:102F700087C09106122987FA910612298763920663
:102F8000122987A59206122987E49206122987152D
:102F900093061229874C93061229879188061229D5
:102FA00087F688061229879C8906122987D3890605
:102FB000122987ADF10412298744F204122987717E
:102FC000F4041229875CF704122987EAF80412290D
:102FD0008756F904122987A5FC04122987F0FD04FD
:102FE00012298727AB0612298772AB06122987663A
:102FF000EF051229870CF205122987B1F205122973
:1030000087DDF2051229870BF30512298740F305A6
:1030100012298768F305122987C8F305122987DF6B
:10302000A0051229875EA50512298746A705122942
:10303000876FA8051229874FA90512298707AB05B5
:10304000122987AAAC0512298776AD05122987CAED
:10305000AD05122987A0A306122987ABA306122962
:1030600087CCA306122987A49305122987B998054E
:10307000122987279A05122987E39B05122987E0E1
:103080009C05122987109E05122987289F05122961
:103090008708A00512298725BA041229875DBA047A
:1030A00012298761C40412298742C5041229878E18
:1030B000C604122987D7C7041229878DC80412298C
:1030C0008761C90412298748CA0412298730CB04B2
:1030D000122987D2CB04122987FCCB04122987AC92
:1030E000CD041229871CCE0412298735CE0412295B
:1030F000878CCF041229873DD004122987BFD004C2
:103100001229876BD104122987DBD1041229877712
:10311000D204122987F3D20412298711D304122969
:103120008713D404122987C9D4041229876FD504C0
:10313000122987D1A506122987FBA5061229870E19
:10314000A70612298711A7061229871EFF04122934
:103150008764FF04122987A6FF04122987B6FF049B
:10316000122987ABE305122987E9E3051229875263
:10317000E4051229876FE40512298788E4051229DE
:10318000873AE50512298743E50512298788E50571
:10319000122987BEE505122987D5E505122987473B
:1031A000E605122987D4E6051229870AE7051229C0
:1031B0008761E705122987C5E705122987E8E70532
:1031C0001229874CE805122987A8E805122987E308
:1031D000E80512298718E9051229872AE905122925
:1031E000873CE90512298774E905122987C0E9059A
:1031F000122987FEE9051229877BF405122987BB6E
:10320000F505122987DEF505122987EFF505122944
:1032100087E4F70512298704F80512298760A106BB
:1032200012298796A106122987DEA1061229873A5C
:10323000A3061229870080051229873181051229EA
:10324000876B81051229872A8305122987548305F4
:10325000122987E18505122987218605122987B859
:1032600087051229874B8805122987A3880512290B
:10327000874689051229877E8905122987C0890515
:103280001229872F8B05122987818C05122987A483
:103290008E05122987D28E05122987F98E051229EB
:1032A00087028F05122987528F05122987E48F051F
:1032B000122987D49205122987579305122987DF8F
:1032C000FF02122987F5FF02122987E3FB02122968
:1032D00087F9FB021229879EFC02122987DDFC0276
:1032E000122987FAFC021229872BFD0212298778FE
:1032F000FD02122987ABFD02122987E6FD02122981
:1033000087D2FF021229875BAD06122987B0AD066E
:10331000122987FBAD0612298748AC06122987BA05
:10332000AC06122987F8AC0612298739AD06122996
:1033300087C8DB05122987CEDB051229870EDC053D
:1033400012298700DE0512298730DE051229879FA2
:10335000DE051229876DDF05122987AEDF051229E8
:1033600087DCDF0512298766E0051229877DE005E5
:103370001229878AE00512298794E00512298730EF
:10338000E20512298725E3051229876EE305122934
:103390008777F7011229878DF70112298720F80115
:1033A0001229874CF90112298741FA01122987DE77
:1033B000FA011229871EFB011229879CFB011229A1
:1033C00087F9FB0112298709FC0112298730FC01CA
:1033D00012298783FC01122987F4FD01122987F93C
:1033E000FD0112298719FE01122987FFDA0212292D
:1033F0008757DB02122987FEDB0212298773DD0261
:103400001229874DDE021229870ADF02122987213D
:10341000DF0212298770DF02122987D4DF02122906
:103420008724E00212298737E00212298798E002F8
:10343000122987F1E00212298785E3021229878980
:10344000E402122987C4E40212298718E50212292E
:1034500087B5E702122987FBE7021229876EE80287
:10346000122987B8E8021229878CE902122987CF2E
:10347000E902122987E9E90212298730EA021229B2
:103480008746EA02122987EBEA02122987CFEB026C
:10349000122987DAEB0212298728EC021229877D8C
:1034A000EC02122987C4EC0212298728EE021229A5
:1034B0008743EE02122987C8F002122987F6F0022C
:1034C000122987F5F10212298719F2021229878839
:1034D000F2021229874BF30212298786F30212297E
:1034E00087ECF30212298701F50212298749F502B8
:1034F0001229875CF5021229875FF5021229876875
:10350000F5021229877AF50212298703F602122999
:10351000872CF6021229873FF6021229876BF602E2
:1035200012298792F602122987B6F6021229872FEE
:10353000F702122987A1F702122987D8F702122968
:1035400087DBF7021229870AF80212298720F8027E
:103550001229873BF80212298769F8021229878904
:10356000F802122987D2F8021229870DF9021229CE
:103570008714FA0212298772FB0212298788FB023C
:103580001229879FFB02122987B1FB021229871596
:10359000FF0312298726FF03122987AFFF03122991
:1035A00087FCFF01122987CD78001229871C79003A
:1035B000122987BC7A00122987907C00122987D2B1
:1035C0007C001229879D7D00122987A57E00122983
:1035D00087C77E00122987237F00122987A47F00D6
:1035E000122987874E00122987A94E0012298701C8
:1035F00050001229874A5000122987C05000122912
:10360000873E5100122987A35100122987E55100F6
:10361000122987545200122987FF520012298777F6
:103620005300122987BC5300122987CB5700122957
:1036300087D25900122987055A00122987575A0044
:103640001229875A5D00122987D65D0012298784C6
:103650005F00122987B66000122987CE6100122907
:10366000875062001229873063001229879B63000C
:10367000122987AF6300122987916400122987C13C
:103680006500122987DC6700122987D56900122995
:1036900087B86A001229874E6D00122987EF6D00E6
:1036A000122987EF6E001229875172001229876153
:1036B0007200122987A77300122987447400122907
:1036C000876E7500122987FF75001229872C7700F5
:1036D0001229877177001229870578001229871629
:1036E000D604122987B6D60412298720D7041229B6
:1036F0008739D704122987C8D7041229870CD80420
:103700001229872BD90412298767D904122987DA4D
:10371000D90412298725DA0412298784DA041229A8
:10372000872EDB0412298717DE0412298734DF0471
:10373000122987B1DF0412298772E1041229871246
:10374000E204122987B1E20412298714E304122942
:103750008789E30412298798E40412298779E5040C
:10376000122987AFE504122987E2E504122987961A
:10377000E604122987C2E6041229873DE7041229CC
:1037800087C0E8041229873BEA0412298790EB04DA
:1037900012298703ED041229870FEE04122987B638
:1037A000EE0412298724EF041229873CF004122921
:1037B00087ACDA0312298717DB031229875FDB0343
:1037C000122987A3DB031229870DDC0312298756F0
:1037D000DC0312298791DC031229872BDD031229D0
:1037E0008785DD03122987DFDE0312298768DF035F
:1037F00012298792DF0312298797E003122987A6EF
:10380000E103122987D8E103122987C8E2031229AC
:1038100087D9E203122987F1E203122987F1E30332
:103820001229870EE403122987D3E403122987FDA6
:10383000E40312298714E5031229873AE5031229C4
:103840008771E50312298791E503122987B8E503FB
:10385000122987D0E503122987AAE60312298702D5
:10386000E70312298778E80312298707E903122959
:10387000872BE90312298742E9031229870DEA03FE
:10388000122987B0EA03122987D6EA03122987068C
:10389000EC0312298725EC03122987A6EC031229D1
:1038A0008713ED0312298757ED03122987E5ED03EE
:1038B00012298750EE0312298702EF03122987F29B
:1038C000F003122987CAF1031229871CF203122977
:1038D0008716F30312298723F40312298734F5038B
:1038E00012298742F50312298712F603122987B29B
:1038F000F603122987F6F6031229870BF70312291C
:10390000870BF803122987AEF80312298706F903FB
:10391000122987A49306122987DD9406122987A30A
:1039200095061229870796061229877B9606122983
:1039300087918406122987AF8406122987F38406AB
:103940001229871985061229873F8506122987576C
:1039500085061229876F8506122987878506122911
:1039600087F285061229873486061229874986063A
:103970001229875087061229876B870612298774B8
:1039800087061229877D87061229878687061229CE
:10399000879087061229870D88061229874AF9051C
:1039A00012298766FD0512298782FD05122987875E
:1039B000FD0512298760FE051229877A8C061229D7
:1039C00087908C06122987168E061229875F8E062D
:1039D00012298769AE06122987B98F06122987E84E
:1039E0008F06122987FA8F061229879CA8061229AA
:1039F00087799C06122987D59C061229870B9D067C
:103A0000122987749D06122987989D06122987AD71
:103A10009D06122987CD9D06122987ED9D06122944
:103A200087FD9D06122987149E06122987409E064F
:103A3000122987CB9E061229879FF9031229870036
:103A40008002122987578002122987C38002122917
:103A5000874F81021229870582021229874D82022F
:103A6000122987668202122987898202122987AB6E
:103A70008202122987E982021229873883021229D9
:103A800087638302122987C183021229876884020F
:103A90001229871085021229878C850212298759DD
:103AA0008602122987A08602122987EC8602122933
:103AB00087748702122987AD87021229870388023B
:103AC0001229871F88021229874E88021229875AD5
:103AD0008A02122987888B02122987B48B02122945
:103AE00087E88B02122987098C02122987188C0219
:103AF000122987238C02122987D28C02122987422D
:103B00008D02122987CD8D02122987D58D021229A7
:103B100087428E021229877E8E02122987448F02E5
:103B20001229871790021229876C90021229870B9D
:103B30009102122987659102122987AA91021229FE
:103B4000874394021229878695021229877098026A
:103B5000122987549902122987389A021229875DFF
:103B60009A021229876E9A02122987E09A02122974
:103B700087779B02122987EB9B02122987DB9C0225
:103B8000122987009D02122987189E021229873662
:103B90009E02122987529E02122987C59E0212296F
:103BA00087D49E021229875C9F0212298759A0029E
:103BB00012298766A0021229876FA0021229875155
:103BC000A2021229877DA3021229878DA30212293E
:103BD00087C8A40212298747A50212298778A6025E
:103BE000122987B4A6021229878EA8021229874BB0
:103BF000AC021229875FAC0212298769AC02122934
:103C00008773AC021229877DAC0212298787AC0228
:103C1000122987A0AC02122987AAAC021229872197
:103C2000AD021229872CAD021229875BAD02122941
:103C30008783AD021229878EAD02122987F3AD0268
:103C4000122987FDAD0212298708AE021229872C9E
:103C5000AE0212298750AE02122987C2AE02122983
:103C6000870BAF0212298727AF0212298798AF026C
:103C7000122987E4AF021229872DB0021229876B1F
:103C8000B002122987ECB00212298793B1021229DF
:103C90008758B302122987BDB302122987EBB402F9
:103CA00012298711B50212298759B6021229879362
:103CB000B90212298791BB021229875CBD02122921
:103CC00087F5BD02122987F6BF02122987ABC00211
:103CD000122987E4C00212298754C1021229875E83
:103CE000C10212298787C3021229878AC4021229B6
:103CF00087C7C5021229871EC602122987C9C602B4
:103D000012298779C802122987C6C902122987E6B3
:103D1000C9021229873BCA021229873CCB02122909
:103D20008764CB02122987C3CB02122987BBCC023E
:103D300012298732CD0212298745CE02122987B374
:103D4000CE02122987B2CF021229870CD202122981
:103D50008735D2021229879BD3021229871DD502EB
:103D600012298774D50212298722D602122987C701
:103D7000D6021229872AD702122987E8D7021229E8
:103D8000877AD802122987D9D8021229871BD9022B
:103D90001229874CD902122987A3DA021229870037
:103DA00080031229873280031229876B800312292E
:103DB000873482031229877882031229874E83036E
:103DC000122987AD8303122987C384031229870F21
:103DD00085031229879D8703122987818A03122967
:103DE00087C88B03122987608C031229876C8C0388
:103DF000122987B58C03122987F78D03122987EDC5
:103E00008E03122987178F031229876D8F031229BA
:103E100087C68F031229873990031229876F92036F
:103E2000122987F19303122987DC9403122987262C
:103E300096031229875E98031229875B9B03122938
:103E4000876A9B03122987FE9B03122987A99C037B
:103E5000122987EC9C03122987359D031229878537
:103E60009D03122987E99D031229875B9E0312296E
:103E700087779E03122987A69E03122987E59E0352
:103E8000122987E09F031229878FA0031229870C2C
:103E9000A3031229873EA40312298716A50312291A
:103EA0008798A503122987CDA903122987FCA903A6
:103EB00012298757AA031229878AAA03122987027F
:103EC000AB0312298735AB0312298796AB0312295E
:103ED00087E6AB03122987B3AC031229876CAD03C5
:103EE00012298730AE03122987AAB0031229870C42
:103EF000B2031229875DB30312298781B403122903
:103F00008784B403122987B3B403122987ABB6039D
:103F10001229876AB70312298799B703122987B72D
:103F2000B8031229877FB90312298740BB031229DE
:103F300087B0BB03122987E2BB0312298702BC03A7
:103F400012298771BC031229876ABD031229878E43
:103F5000BD0312298701BE031229872AC003122933
:103F60008789C003122987DDC0031229870CC30388
:103F7000122987EFC30312298777C4031229875BAD
:103F8000C503122987E5C503122987F9C50312293C
:103F9000870DC60312298721C60312298735C60358
:103FA00012298762C60312298792C6031229874DF8
:103FB000C80312298723C903122987C7C9031229F5
:103FC000871CCA031229877FCA03122987C8CA031C
:103FD000122987EFCA03122987B7CB031229875DFD
:103FE000CC03122987E3CD031229876ECE03122951
:103FF00087B5CE0312298727CF031229877CD003E8
:1040000012298725D10312298759D10312298771D3
:10401000D10312298714D20312298790D4031229BD
:104020008738D60312298756D60312298774D603F8
:1040300012298740D7031229878EDA031229873481
:104040008101122987768101122987E386011229CD
:10405000872F8701122987758701122987C6880152
:104060001229872B89011229876F8901122987D587
:104070008A01122987308E01122987638F01122944
:1040800087F29A01122987829B011229876C9E016F
:10409000122987D19F0112298734A0011229875044
:1040A000A101122987BAA20112298799A301122915
:1040B0008707A60112298799A7011229872AA80133
:1040C00012298749A901122987D6A901122987E057
:1040D000A90112298708AA01122987ABAA0112296E
:1040E0008796AB011229875EAC01122987EBAC01E0
:1040F00012298701AD011229871EAD0112298747B8
:10410000AD0112298774AD01122987B8AF011229B8
:10411000878BB001122987CFB00112298751B101D5
:10412000122987F2B10112298724B2011229876B63
:10413000B2011229879EB201122987E2B201122927
:104140008731B30112298736B30112298792B3014F
:10415000122987D6B301122987C0B40112298725F5
:10416000B50112298783B50112298702B6011229E8
:10417000877AB9011229877DBA0112298713BC01F8
:1041800012298756BF01122987F8BF0112298741DA
:10419000C201122987FCC2011229873BC3011229DF
:1041A00087FFC4011229871CC50112298725C50173
:1041B0001229872EC50112298739C501122987586E
:1041C000C5011229877CC701122987D9C701122985
:1041D00087E3C701122987EDC70112298750C8015B
:1041E000122987ACC801122987B9C9011229871A77
:1041F000CA011229872BCB0112298774CB011229FE
:10420000873ECC0112298755CD0112298719CE018D
:1042100012298765CF0112298769D0011229876287
:10422000D1011229877AD101122987B1D10112292E
:1042300087BBD101122987C5D101122987D0D101AD
:10424000122987EED10112298736D20112298794CB
:10425000D201122987BBD201122987CDD20112299E
:104260008776D301122987AFD301122987E0D401C1
:104270001229873DD5011229872ED601122987647C
:10428000D601122987D4D60112298750D7011229C5
:1042900087D1D801122987F8D901122987BADA0102
:1042A00012298788DB011229870DDC01122987BCBE
:1042B000DC01122987A4DD011229873DDE011229C4
:1042C0008719DF0112298781DF0112298740E00168
:1042D0001229879CE00112298700E101122987C673
:1042E000E101122987E9E101122987A3E2011229DC
:1042F00087C5E20112298726E30112298756E501C5
:104300001229874FE601122987FBE6011229871837
:10431000E90112298761E901122987ACE901122913
:104320008708EA0112298766EA011229878AEA01C9
:10433000122987AEEA01122987E3EA011229870BC5
:10434000EB0112298750EB01122987AEEB011229EC
:104350008707EC0112298701ED01122987ADEE01D3
:10436000122987F2EE011229871BEF01122987A477
:10437000EF0112298717F00112298725F001122970
:104380008749F0011229879FF001122987BAF001AD
:1043900012298775F101122987A1F101122987E4F9
:1043A000F10112298747F20112298757F4011229D6
:1043B0008783F4011229873EF50112298722F6012D
:1043C000122987B6F601122987FAC7051229873202
:1043D000C80512298753C80512298795C8051229CF
:1043E00087F9C80512298703C90512298713C9054A
:1043F0001229874AC905122987F3CC05122987BBE0
:10440000CE051229879FD00512298741D10512298F
:1044100087CBD105122987508004122987F980049F
:10442000122987D88104122987E48204122987047B
:104430008304122987268404122987D68504122929
:10444000874386041229871487041229871A88044F
:10445000122987928804122987CD88041229872679
:104460008904122987618904122987AA89041229DB
:10447000873E8A04122987D48A04122987A98B04CB
:104480001229877C8C041229870A8D04122987300F
:104490008D041229875D8D041229878E8D041229BF
:1044A000875B8E041229876B8E04122987BE8E04C7
:1044B000122987CB8E04122987D88E04122987E10E
:1044C0008E04122987458F04122987A38F0412298D
:1044D00087EE8F04122987099004122987309004EF
:1044E0001229874D9004122987599004122987EACE
:1044F00091041229870392041229877F92041229BA
:1045000087929204122987A2920412298746930463
:10451000122987B29404122987C595041229876548
:1045200096041229876F9604122987EE96041229A1
:1045300087FF96041229873E97041229876C9704F7
:10454000122987399804122987909804122987C95B
:1045500098041229871F99041229873D990412296A
:10456000878B9904122987569A04122987A49A04E2
:10457000122987F19A04122987749B041229879EB5
:104580009B04122987D49B04122987E39B041229D8
:1045900087429C04122987BA9C04122987FB9C0439
:1045A0001229874B9D04122987769D041229879032
:1045B0009D04122987AA9D041229877F9E0412292F
:1045C00087899E04122987C49E04122987D49E04D9
:1045D000122987DD9E041229872E9F041229874203
:1045E0009F0412298764A00412298777A004122946
:1045F000878CA0041229871FA10412298793A10484
:1046000012298738A20412298743A204122987A6F7
:10461000A304122987C2A3041229870EA404122915
:10462000877CA404122987AEA404122987C8A40495
:1046300012298728A504122987C7A50412298712E1
:10464000A60412298765A804122987FDA804122947
:104650008774A904122987D1AB04122987E9AB0416
:10466000122987ECAB04122987F8AB041229870CB6
:10467000AC0412298714AC041229874BAC0412290C
:10468000873FAD04122987C9AD041229874BAE04B8
:10469000122987CBAE04122987A2AF04122987C43E
:1046A000AF041229875DB004122987BAB004122919
:1046B00087BDB0041229872CB10412298778B2046F
:1046C0001229878BB30412298716B404122987296B
:1046D000B504122987F0B50412298721B6041229DE
:1046E0008747B60412298750B6041229877FB6047B
:1046F0001229872FB704122987DFB704122987529E
:10470000B804122987F5B80412298768B904122958
:1047100087A7B904122987F0B90412298771B00656
:104720001229872DB0061229871BB0061229870B84
:10473000B006122987E7FF01122987FD7F001229A1
:1047400087E1FF05122987DAFF051229871CBA05C0
:1047500012298769B9051229879DB805122987F999
:10476000B605122987C2B60512298794B605122903
:104770008741B60512298798B50512298700B50526
:10478000122987DAB4051229878FB40512298763A5
:10479000B405122987D7B30512298776B3051229E4
:1047A0008731B3051229874CB2051229877DB106DE
:1047B0001229876AB1051229876FB1061229876607
:1047C000B1061229875DB106122987D87F00122908
:1047D00087FCFF04122987ECFF04122987FA7F0067
:1047E00012298712B10512298782B0051229873D47
:1047F000B00512298752AF0612298721B005122968
:1048000087CFAE0512298791AE051229876BAE05B9
:10481000122987C0FF04122987EFAD05122987EC02
:10482000AE06122987C3C7051229877CC70512293E
:10483000871BC705122987EEC605122987C4C6053E
:1048400012298790C60512298768C605122987088C
:10485000C605122987F2C505122987B7C505122991
:10486000872EC50512298775C10512298733BF0513
:10487000122987D4BC051229875CBC051229870D33
:10488000BC05122987FDBA051229879ABB05122992
:10489000875BBB05122987CB8E0600000080FBE4F6
:1048A000738F0001001D1B870001001C1B350004D5
:1048B00000A21E25000200A61E26000200A81E2738
:1048C000000200AA1E28000100B41E29000100B544
:1048D0001E84000400B61E86000100BA1E2A0001D4
:1048E00000BB1E2B000100BC1E2C000100C01E2DB1
:1048F000000800001B2E000100C11E2F000100C295
:104900001E30000100C31E31000100C41E32000130
:1049100000C51E33000100C61E34000100C71E364C
:10492000000100081B38000100C81E39000100BF4B
:104930001E83000200DC1E63000100191B640001DD
:1049400000BD1E65000100BE1E6D0001001A1B7136
:10495000000800F81A66000100DB1E43000100CCCD
:104960001E44000200CD1E45000100CF1E4600027D
:1049700000D01E47000800111B48000100D21E4B4A
:10498000000100D31E04000100DE1EA1000100E1B1
:104990001E37000100E01E88000100DF1E3C000100
:1049A00000091B3D000100C91E49000200D41E671A
:1049B0000001001B1B4D000200D61E4E000100D856
:1049C0001E4F000200D91E3E000100101B510001C5
:1049D000000A1B52000100CA1E53000100CB1E54E6
:1049E0000001000B1B000000000000000136360132
:1049F0000100010201000103010001040106060596
:104A0000020000070100340801000F090401010D34
:104A10000100FF0E08000017020000190100FF1A34
:104A20000100011B0100FE1C0100081D0200001F07
:104A300001000120010001210200002301000F24D8
:104A40000200002601000127010008280200FF2AB9
:104A50000100072B0102402C0100002D0100012E56
:104A60000100012F0100FF30010B1D310800003A49
:104A70000100083B01000F3C0100013D0100FF3E29
:104A800004000042040000460400004A0400004EF6
:104A900004000052040000560400005A0400000103
:104AA0000371030103010301030103010322030254
:104AB00003010310030003000300030003000300CD
:104AC000030003420300032403060300030003045E
:104AD0000312032503230325032303040304030014
:104AE00003000300034403000300032303000365E2
:104AF00003210035038103000305030003000300C5
:104B000003000325032303010171010101010111C8
:104B10000101013101010101018001100161013B2D
:104B2000001400630173017201620143010001136B
:104B30000106013D013500040112010001000100E0
:104B400001000104010401330133013C014401323D
:104B500001360000010001650100013500810100FE
:104B6000010501820183010001030271023001602D
:104B700002110270020102020202028002100261AE
:104B8000023A0041006302730272026202430200B1
:104B900002130238000002000204021202000200A6
:104BA000020002000204020402370037003C024403
:104BB0000200023900000200026502000235028193
:104BC0000200020502820283020002030471040251
:104BD00004600411047004020402040104020410BD
:104BE0000461040004140463047304720462044343
:104BF0000400041304060400040004040412040066
:104C000004000400040004510464000004000400D3
:104C10000444040004000400040004650400043596
:104C2000048104640005040004830400040300718B
:104C30000030016000110070003102200350048038
:104C40000010006100000014006300730072006235
:104C500000430000001300060000000000040012E2
:104C600000000000000000000004000400370037CE
:104C7000003C02440000000000000000006500004D
:104C800000350081000000050000008300000036B0
:104C9000000100060000000F0000000000000000FE
:104CA000000000000003FFFF00000403FFFF0000FE
:104CB000FFFF0FF4010005C4040320000100000BF6
:104CC000000000000000000003010F0000000000D1
:104CD00000000000000000000000000000000000D4
:104CE0000000000000000000000000000000001EA6
:104CF0003713007C361F0082361F80883601001E65
:104D0000370200043603000A360400103605001688
:104D100036060022363000403631003A3632004C3A
:104D200036330052363500583634005E363600646D
:104D300036110070361400763615003436FFFF0049
:104D4000000A00000002000000040000000800004B
:104D50000010000000200000004000000080000063
:104D60000000010000000200000004000000080034
:104D700000001000000020000000400000018440FE
:104D800006BA4008B4400BD240104E3D0AE440023F
:104D90008A4005A8400790400C6C400D784064267E
:104DA0003BFF000007ECFDFDFDECDCDCCCBCACAC5B
:104DB0009C9C8C7C7C6C6C5C5C5C4C4C3C3C2C2CE3
:104DC0001C1C03EAF5E5D5D5C5B5A5959585857572
:104DD0007565655555454535352525151505001667
:104DE0000F00000B150B020002220F3300000E5AB9
:104DF0006967426565416C6C69616E636530390154
:104E0000030507090B0D0F00020406080A0C0D002C
:104E10000119161816161823030030301718192117
:104E2000301B1D1F30303016181920231A1C1E305D
:104E300000393D3F373C3C362C442D00034A494362
:104E40004E181A2505020C0E020B040B0A07080067
:104E50000F020402010101010902E803000000BE83
:104E6000040A0000E8030E0000007F001E1E050378
:104E700003000404010A0C0C08011E000C010903C4
:104E8000010C05081108FFC082C083901A76E4F077
:104E9000A3F07C4C7D1C7AE37B19123328123B561D
:104EA000123D9C123B5C0263A874F512243A74F51F
:104EB000122A80E9FF8A08EBFE8C09E9705B740214
:104EC0006A703E7908123574750A00780A1229A8AA
:104ED000E509F50A780A1229A8EEF50A780A1229D6
:104EE000A89019FF122803901EBAE0F97C117D1BCF
:104EF000901EDC12624C123B8074071229D2024FC2
:104F0000D074016A6003024FD579081235747B00B2
:104F1000EEFAF9123BC2024FD074016F60087402BE
:104F20006F6003024FD5EA600574036A7047790227
:104F3000123574901EBAE0F99019FF122C5F123BE3
:104F40006EE9F8901A0EE0A2E34010E9700D901A95
:104F50007AE004F064047003124FEF740365087084
:104F600071901A7BE0F9740129F0E9C3940540625D
:104F7000124FEF805D74016A705B74016F790A7083
:104F80002E1235747401122C8EE4F07402122C8EE1
:104F90007403F004122C8EE4F0A3F0A3F0A3F074D9
:104FA00008122C8EE4F0AA18AB1912409680361223
:104FB0003574901EB01228037A007B201259A1127A
:104FC00029D2901EBAE0F99019FF122C5F123BA46F
:104FD000E9F8E860109080E31228037A017B001260
:104FE00059A11229D2740B1229D27F030226B5903F
:104FF00019FFE4F0A374F8F0A374FFF0A37407F0B2
:105000002274F612243AE9FFEAFE7AD1F91231A2AB
:105010008A828B83E5824583702A7A027B00123173
:1050200084EA4B700E7A107B00901A03E0F912317B
:10503000C680148A828B8374D1F0EFA3F0EEF9124C
:1050400031908003EFA3F002524F74F712243A8993
:10505000089004D112754FFF901E9DE0F47003A3D9
:10506000E0F470319007BBE0901E9DF0A3E4F08067
:10507000248E828F83A31260B0600F8E828F83A3F1
:10508000A31260ADFAA9081235EC8E828F83125FED
:1050900076E8FEE9FFEE4F70D8901E9DE0F47003B5
:1050A000A3E0F4600A901E9DE0FAA9081235EC1204
:1050B00041A49019CD1257C512419E7F010226B519
:1050C00074F012243A890B8C0C7509007508007471
:1050D00010122C8E125F767412122C8E1267C0FD85
:1050E000804712518AF50EA3E0F50FAE08EE2EFEB2
:1050F000E433FFEA2EF582EB126457650E7004A3C9
:10510000E0650F7019AE09EE2EFEE433FFEC2EF5CC
:1051100082ED3FF583E50EF0A3E50FF00509050AE2
:10512000E50AC3950C40BB0508E508C3950B50057F
:10513000750A0080EBA90980007F080226B574F487
:1051400012243A890B7D00740C122C8E125F76802B
:10515000010DEDC3950B502E750A008002050AE57E
:105160000AC39C50ECED25E0FEE433FFEA2EF58205
:10517000EB3F1269B912518A65087004A3E0650912
:1051800070DB7901800279008014AE0AEE2EFEE415
:1051900033FFE82EF582E912598B221229D27F04BF
:1051A0000226B574F612243A1252397003A3E06D48
:1051B000701775080C75091A78081229A4EEFA12EE
:1051C000372474021229D2801A7508027509807872
:1051D000081229A48A08890978081229A4125227DA
:1051E0001229D2806A74F612243A1252397003A33B
:1051F000E06D701775081975091A78081229A4EE60
:10520000FA12372A74021229D2801A750803750916
:105210008078081229A48A08890978081229A4121A
:1052200052271229D28028EE240E125988FD7C8044
:1052300012645F123748740422EAFEEBFF126476B0
:10524000FCE439FD9019CDE06C2274021229D27F62
:10525000020226B574F612243A74FE122A80EAFE7F
:10526000EBFF851882851983E41252F81265B1FBB1
:10527000ECFA88828983A3A3E0F975090075080018
:10528000600574FF697005750882803E9019CDE055
:105290006A7003A3E06B701BAA18AB1912484CE9A3
:1052A000FA8518828519831267CB70037508838A83
:1052B000098017901B1CE06004640170057508816B
:1052C0008008E06402700375088085188285198360
:1052D0001267C0FDA908EEFAEFFB123730E509604E
:1052E000148518828519831267CB60098518828519
:1052F0001983126DE802524AF0A3F0127428227446
:10530000F212243AEAFEEBFF7508007509001264F8
:1053100072F50AE439F50B1241A4EA650A7003EB51
:10532000650B701212483AE914F50879017A427B4C
:105330001A1248348003750980EE240E126454F565
:105340000C780C1229A8750C42750D1A780C1229CC
:10535000A478081229A8780A1229A4E509F5087882
:10536000081229A812623B126454F97A057B801254
:105370003736740702768D74F612243AE9FF7E0000
:1053800080328A828B83E0F508A3E0F8E4C8F9E56F
:105390000828E439F509EE25E0F8E433F9EC28F5BE
:1053A00082ED39F583E508F0A3E509F0EA2402FA75
:1053B00050010B0EEEC39F40C902524F74E81224F5
:1053C0003A74FC122A808A168B1775110074021227
:1053D0002C8EE4F0A31265B91252F83517125999C0
:1053E000F50B850A82F5831277F3FEE439FF850A0F
:1053F00082850B83A3A3E0FA850A82850B83A3A38E
:10540000A3E0F9EAF508E439F509EEFAEFFB1242F8
:1054100040E964016016EEFAEFFB124240E9703891
:105420009019CDE06E7003A3E06F602C12718F12A3
:1054300029A8E4F508F50978081229A478081229A2
:10544000A89019CD12280775088078081229A8128B
:1054500057931229D2025772850A82850B83A3A320
:10546000A3A3E0F510E50A2405F50A5002050BE5B3
:105470001060281277047402122C8E1257C5740221
:10548000122C8E1267CB60137402122C8E12578965
:10549000A91012361C8A0A8B0B8003751000850A2E
:1054A00082850B8312769E6024127704851882858C
:1054B0001983EAF0A3EB1267D1E8496010851882DE
:1054C000851983125789A90F12361C8003750F00A6
:1054D0009004D18052850A82850B83A3A3A3A3A342
:1054E000A3A3A3E4F0A3F0AA0AAB0B85148285154D
:1054F00083A3A3E0F81260ADF91231908512828582
:105500001383E0C0E0A811744228F582E4341AF550
:1055100083D0E0F00511A2005007AA12AB1312329B
:105520002C851482851583E0F514A3E0F515E514A8
:10553000451570030256EF851482851583A312600A
:10554000B060DE851482851583A3A3A3A3A3A3A3C0
:10555000A3E0A2E050CB851482851583A3A3A3A367
:105560001267CB851482851583A3A3601E1260B1D8
:10557000FA7901851482851583A3A3A3A312577C0E
:1055800012489F8A128B13D200800F12577CA3A35C
:10559000A3E0F512A3E0F513C200E5124513700372
:1055A000025516851282851383A3E065087004A353
:1055B000E06509600F74FF6508700474FF65096099
:1055C00003025516851282851383A3A3A3A3A3A365
:1055D000A3122807851282851383A3A3A3A3A3A3E1
:1055E000E0FC7404122C8E12624CA9101235FE7469
:1055F000021229D2E9703C851282851383A3A3A3EA
:10560000A3A3A3A3A3A3A3122807851282851383B0
:10561000A3A3A3A3A3A3A3A3A3E0FC7402122C8EB1
:1056200012624CA90F1235FE74021229D2E97003DE
:10563000025516E50F2510C333240AFA7B001231F8
:10564000848A0A8B0BEA4B70030254FC8A828B8398
:1056500074D21269C38A828B83A3A3E8F0A3E912F0
:10566000766DA3E5101277FDE50FF0E510602CEAEA
:10567000240AFAE4350BFB850A82850B831257C096
:105680007402122C8E1257B31229A0AC10EC2CFC11
:10569000E433FD126EC11229D2800D8A828B83A35E
:1056A000A3A3A3A3E4F0A3F0E50F70030254D5A8CD
:1056B00010E828F8E433F9E50A28F8E50B39F9E8A9
:1056C000240AFAE439FB850A82850B83A3A3A3127B
:1056D00057C08518828519831257B31229A0AC0FC1
:1056E000EC2CFCE433FD126EC11229D20254E7E522
:1056F00011602512718F1229A875084275091A7850
:10570000081229A4E511F50878081229A89019CDE6
:105710001228077508008029EEFAEFFB124240E9D3
:10572000702A12718F1229A875084275091A780813
:105730001229A475080078081229A89019CD1228FA
:105740000778081229A81257931229D27402122C32
:105750008E1267CB60087402122C8E126DE88518C9
:10576000828519831267CB60098518828519831297
:105770006DE874041229D27F100226B512578022D8
:10578000E0F8A3E0F583888222E0FCA3E0FDAA0A0A
:10579000AB0B22E5162402FCE43517FDE516240FB9
:1057A000F582E43517F583E0F97A067B8012373607
:1057B000740722E0F50CA3E0F50D750E00780C22BD
:1057C000A3A3A3A3A3EAF0A3EBF02274F112243A5B
:1057D00074F4122A808A088B09ECFEEDFF740B1218
:1057E0002C8E7403F0122A4212332812632474039D
:1057F000122A42123322E9600A1259906010E064C2
:1058000001600B851882851983748402593C8E824D
:105810008F83A3A3A3A3A3A3A3A3E06013F46010A7
:105820001259907016EE24141264546003F4700B35
:10583000851882851983748202593C127513E064BD
:10584000217002A3E0600302591385188285198331
:10585000748CF012599060030258FD7401122A4AA8
:10586000EE240BFAE43FFB123EC8E960030258FD48
:105870001235628A0A8B0BEA4B700302593D8E0C7B
:105880008F0D750E00780C1229A07C157D00126E0C
:10589000C11229D2850882850983A3A3E50A2415AC
:1058A000FCE4350BFD7409122900127144C0E0E5D7
:1058B0000A241E125975D0E0125DCDC0E0E50A241D
:1058C0001F125975D0E0F0E50A24201259757405AD
:1058D000F0EE240BFE50010FFAEFFB1247747D002F
:1058E0007C007900EEFAEFFB1236EE9080E312288E
:1058F000037A007B101259A11229D2807312597DAC
:105900001229A81259AC123EAA74011229D2E970C8
:105910002C801412597D1229A81259AC123EB07471
:10592000011229D2E9700D851882851983E4F012DD
:10593000353280098518828519837488F012714484
:10594000F50A780A1229A87401122A3A880A890BE2
:10595000780A1229A4E508240CF582E435091259C5
:10596000994480F50B780A1229A41263061229D2F1
:10597000740C026CD7F582E4350BF58322EE241407
:10598000125988F50A780A22F582E43FF583E0226D
:10599000EE2413125988640322F583E0F50AA3E08C
:1059A00022901A03E0F91232E0740422EE240BFC78
:1059B000E43FFD8E828F83A3A3A3A3A3A3A3A3A3EA
:1059C00012717F8E828F83A3A3A3A3A3A3A3A3E0BB
:1059D000F922C082C08374F3122A80851882851947
:1059E00083E4F004122C8E1257C57403122C8EAA75
:1059F00082AB83123A5AAA18AB19123A96740D1256
:105A000029D20263A874F612243A12644DF8A3E076
:105A1000125A48F8901A14E058F508A3E059F5090D
:105A2000E5084509601F78081229A49019CD1228AD
:105A300007EE240E126454FD7C0012645B123742A0
:105A400074041229D202524F8882F583125A5022CE
:105A5000E0FAA3E0F9EA2274EA12243A74DB122A8B
:105A6000808A148B15751200751300127424351575
:105A7000F5831260B1F50EAC18AD197A007B007990
:105A80009C123BD47A047900123AC0EAF50C8518CE
:105A900082851983E02AF0F8E50EC3984003025C82
:105AA0007BE0C3950EF509C394044003750903E533
:105AB0000975F01AA4FAABF01232268A128B13EA97
:105AC0004B7003025C7E750D00AE12AF13850E089D
:105AD000025B5B7C087D0079FFEE240AFAE43FFB61
:105AE00012316C850A82850B83A3A3A3A3E0702DDA
:105AF000850A82850B831267CB700C127358F0EE07
:105B0000241812735B8010125D03F0901CBEE01429
:105B1000C0E0125CE6D0E0125D36E48034901CBE3A
:105B2000E004C0E0125CE6D0E0125D29C39403EE0D
:105B30004003025BE41274197402125D296401705F
:105B400003025BF1EE2415125D06F0EE2416125DE1
:105B500006F0EE241AFE50010F050DE50DC3950960
:105B60004003025C1CE508C3950C4003025BFAAAE3
:105B7000087B00123B0E8A0A8B0B0508901CAB12A7
:105B80005D0F850A82850B83125F76125CDEF583DA
:105B9000E8F0A3E9125D46850A82850B83A3A3A3DF
:105BA000A3A3A3A3A3A3A3E0C0E0125CD4D0E0F01E
:105BB0007401122C8EE4F0850A82850B83125F76C5
:105BC0007402122C8EE812755D7401122A42123A88
:105BD00084E964016003025AD37404122C8E125CAF
:105BE000F4025AE3125D04125D2964036003025B50
:105BF00044EE241512735B025B4AE50CC3950E401C
:105C000005750800801DE50EC3950CF5088014127B
:105C10005D03F0EE241AFE50010F050DE50DC3954E
:105C200009505B740E122A4AAA087B007987123B3E
:105C3000D405087418122C8E125D0F7410122C8E5D
:105C4000125CF4EE2412F8E43FF9740E122C8E125A
:105C5000624C88828983EAF0A3EB125D36740312EA
:105C60005D46741D122C8EE0C0E0125CD4D0E012B0
:105C7000763AE84970991273588097750900750A49
:105C800000780A1229A878121229A478091229A8E2
:105C9000E50EF50978091229A87405122C8EE0FD8D
:105CA0007C00E5141261C93515FBE5141273493502
:105CB00015F583E0F912377E74051229D2E51245F5
:105CC000136007AA12AB1312322C74251229D27F4B
:105CD0000E0226B5EE2419F582E43FF58322EE2468
:105CE00012F582E43F22125CEA22EE2418F582E4E7
:105CF0003FF58322AC82AD83EE240AFAE43FFB1227
:105D0000332822EE2414F582E43FF5837401221235
:105D100069D08E828F83E8F0A3E9F07CBF7D1CEE12
:105D20001261C93FFB12332822F0850A82850B835A
:105D3000A3A3A3A3E02212739C7402F0EE2416F531
:105D400082E43FF58322F0EE2417F582E43FF583E9
:105D50007402F0125CEA74FFF02274F612243A74B2
:105D6000F9122A8012742035091278B185188285BB
:105D70001983122C778E828F83A3A3A3A3E0C0E0A4
:105D80007404122C8ED0E012764FF87405122C8E0B
:105D90007401F07406122C8E7401F09019D7F090F3
:105DA00019E00412743EFAA3E0FB9019D81257C50B
:105DB000E89019E1125DCD9019D6F0AA18AB19122E
:105DC0003B74E96003123B7A740702524CF0E50819
:105DD000240F12714C2274F212243A74FF122A809A
:105DE0007508007E007F001240C68A0A8B0B125F86
:105DF0005680080508125F62125F76E84970F490D9
:105E00001B1CE0600764016003025ECE125F5680D7
:105E100006125F62125F76E84960338882898312D6
:105E2000624C901CABE06A7003A3E06B600A125FE7
:105E30006212624CEA4B70D988828983125F769035
:105E40001CABE0687003A3E0697003025ECE7A16B3
:105E50007B001275D26077901CAB125F768A828BC2
:105E600083E812755D901CA0126AB2F0124228E914
:105E70008E828F83A3A3A3A3A3F0901EBBE08E8288
:105E80008F83A3A3A3A3A3A3F07CBF7D1CEE240B4D
:105E9000125CFBAA18AB19794112393A8518828530
:105EA0001983E060089019CD125F76800478FE793E
:105EB000FF8E828F83A3A3A3A3A3A3A3E812755D80
:105EC000EE125F6A3F125F7A8E0A8F0B05089019F7
:105ED000E1E0F8E508C398500479008027E508C39D
:105EE00098F9C39406400279057800800DE50A12FE
:105EF0005F6A350B125999F50B089019E1E0FAE841
:105F0000C39A40E975090078091229A8780A12296C
:105F1000A4E9F50978091229A89019E1E0F50978B2
:105F2000091229A8AD087C007AD87B199019D6E00F
:105F3000F912377874051229D2901B1CE0600464B2
:105F400001700BEE4F6007EEFAEFFB12322C123BA2
:105F50007A740102768D1240C68A0C8B0DA80CA9AA
:105F60000D22E8125F6A39F583222414F582E422B7
:105F70008518828519831269D022F583E50AF0A37A
:105F8000E50BF02274F012243A74FF122A808A0A78
:105F90008B0B7E008E0E8E0F1274241259781260B5
:105FA000B1FFAC18AD197A007B00799D123BD48506
:105FB0001882851983E0F8EFC3984003026058E027
:105FC000C39FFEC3940B40027E0AEE75F007A4FA4D
:105FD000ABF01261C18A0E8B0FEA4B6079750C0031
:105FE000801A850882850983A3A3A3A3A37403F061
:105FF000E5082407F50850020509050CE50CC39EC9
:106000005056AC08AD09E50C2FFAE43400FB798B4F
:10601000123BD4850882850983A3A3A3A3A3E0141C
:10602000600814601314601F80B885088285098396
:10603000A3A3A3A3A3E480B7850882850983A3A3B0
:10604000A3A3A3740180A8850882850983A3A3A3C1
:10605000A3A3740280997E0075080078081229A80D
:10606000780E1229A4EEF50878081229A8EFF50891
:1060700078081229A87405122C8EE0FD7C00E50A30
:106080001261C9350BFBE50A127349125978E0F920
:1060900012378474051229D2E50E450F6007AA0E47
:1060A000AB0F12322C74011229D2025139125782CD
:1060B000A3125780E02274EE12243A74FE122A8052
:1060C0008A0C8B0D751000751100127424350DF5B6
:1060D000831260B1F50AAC18AD197A007B0079A380
:1060E000123EB6125F70C3E50A98E49950748518A1
:1060F00082851983A80AE0C398FEA3E09400FFC339
:10610000EE9404EF940040067E037F008004EE4F7F
:106110006050EEFAEFFBEA75F015A4FAA8F075F0FE
:1061200015EBA4281261C08A108B11EA4B603375FD
:106130000B00750E00801FAC08AD09A80AE50E28FB
:10614000FAE43400FB79A2123EB6E5082415F508FE
:1061500050020509050EC3E50E9EE49F40D9EEF9F5
:106160008005750B8B790075080078081229A878CE
:10617000101229A4E9F50878081229A8E50AF508FB
:1061800078081229A87405122C8EE0FDAC0BE50CE2
:106190001261C9350DFBE50C127349350DF583E02D
:1061A000F912378A74051229D2E51045116007AA41
:1061B00010AB1112322C74021229D27F0A0226B5BA
:1061C000FB1232268A088B09222402FAE42274F692
:1061D00012243A74FF122A80EAFEEBFF12622712A1
:1061E000624C8A82F583A3A3A3A3A3A3A3A3E0F98C
:1061F000123B98E9851882851983F07508007808A4
:106200001229A87401122A3A8808890978081229E3
:10621000A475083575098078081229A412622F1216
:1062200029D2740102524CEA1274293FF583227973
:106230000112623BFAE43F12631D22EE2402FCE4E9
:106240003FFDEE240F2285188285198312717F226B
:1062500074F412243A74FA122A80127420126EB363
:1062600012754FFFEEFAEFFB123A60E9600F12630E
:1062700024EEFAEFFB123322E96401700A74011272
:106280002C8EE4F0A380097401122C8EEEF0A3EFA3
:1062900012767AF8A2E650087403122C8E7401F07C
:1062A000E8A2E750087404122C8E7401F0740512F1
:1062B0002C8EE4F004122A42123BC8E9851882852C
:1062C0001983F09080E7122C5F1241C27A007B00A4
:1062D0001241CE7A007B001241C8750A00780A127A
:1062E00029A87401122A3A880A890B780A1229A46B
:1062F000750A34750B80780A1229A41263061229D4
:10630000D2740602519B7901E5082402FCE43509A8
:10631000FDE508240FFAE4350912631D22FB12364D
:10632000E274052212419E8A0A8B0BAC0AAD0B2245
:1063300074F612243A74FF122A8012644DF8A3E016
:106340008882F583E0F509A3E0F508A909123B86E8
:10635000E9851882851983F0901B1CE0700B74018D
:1063600065087005A909123844EE240B12645470B4
:106370002775080078081229A87401122A3A88089B
:10638000890978081229A4750836750980780812D9
:1063900029A412622F1229D2026222C082C08390E5
:1063A0001B1CE0700312384AD083D0820229847407
:1063B000F412243A74EF122A80EAFEEBFF126472A0
:1063C000F508E439F5099019CDE06A7003A3E06996
:1063D0007052A818A919880A890B780A1229A4757D
:1063E0000A11750B00780A1229A47C007D007A81BD
:1063F0007B001232B074041229D2E97027750A00AA
:10640000780A1229A87401122A3A880A890B780A94
:106410001229A4AC08AD0912645B12373C74031254
:1064200029D28024750A11750B80780A1229A47864
:10643000081229A4EE240E126454FD7C8412645BBD
:1064400012374874041229D2741102519BEAFEEBF0
:10645000FFEA2413F582E412598B2212645F22EEC4
:106460002402FAE43FFBEE240FF582E43FF583E0DB
:10647000F92212647622EA2413F582E43FF58312AE
:106480006D498882F583E0FAA3E0F8E4C8F9EA28C8
:106490002274F112243A74EB122A80EAFEEBFF1206
:1064A00074241265B1FAE4CAFBEC2AF5089019CD00
:1064B000E06C7003A3E06B600302655688828983F9
:1064C000A3A3E09410500F88828983A3A3E08518CA
:1064D0008285198380088518828519837410F0E0FD
:1064E000C0E07404122C8ED0E012753EA982AA83FB
:1064F000890C8A0D750E00780C1229A07407122CD5
:106500008EE0FC7D007408122C8EAA82AB83126E82
:10651000C11229D27404122A3A880A890B780A1205
:1065200029A4750A11750B00780A1229A47C007D34
:10653000007A817B001232AA74041229D2740412E8
:106540002C8EE0901A0C6005E0D2E48003E0C2E4F7
:106550001265B9E480088518828519837484F0E097
:10656000C0E07401122C8ED0E0F07402122C8EE583
:1065700008F07403122C8EE508F01265AA3F127120
:10658000981229A87402122A3A88088909780812F0
:1065900029A475081475098078081229A4790312B2
:1065A00062311229D27415026CD7EE240EF582E402
:1065B000223F127562FCA3E022F0851882851983C0
:1065C0002274F612243A74E0122A80EAFEEBFF905D
:1065D0001CADE064086008E0640460030267A5ACD9
:1065E00018AD191236CA901B1CE0640270271241C4
:1065F0009E7402122C8EAC82AD83123322E9601598
:106600001267AA851882851983E0687003A3E06980
:1066100070030267A51243727402122C8EAC82AD15
:1066200083126246124270E9640170030267A57426
:1066300018122A421241B07402122C8EAC82AD8321
:106640007418122A42123322E9602D1241AA8A08D4
:106650008B09A808A909851882851983E068700349
:10666000A3E0696013125F70901CA1E812755D7A57
:10667000A17B1C794B123940901B1CE06004640123
:1066800070671267AAEE2411126454687003A3E0C5
:106690006960567402122C8EAA82AB83123AEA8B7E
:1066A00009A909EA4960268A828B83A3A3A3A3E0F0
:1066B0006401600D8A828B83A3A3A3A3E0640270AC
:1066C0000C7402122C8EAA82AB83123AF6901D3BF8
:1066D0001267CB6014901B10E06401700C126246CC
:1066E000901D3C12578312489F7900126246123D5A
:1066F00018901CAB1267C0FD12624612432A740B3D
:10670000122C8EE41267D1740C122C8EE812755D77
:10671000740B122A42123A84E9603F7C087D0079AA
:10672000007418122A4212316C740E122C8EAC8234
